{"abi":[{"type":"constructor","inputs":[{"name":"_x509Verifier","type":"address","internalType":"address"}],"stateMutability":"nonpayable"},{"type":"function","name":"cancelOwnershipHandover","inputs":[],"outputs":[],"stateMutability":"payable"},{"type":"function","name":"completeOwnershipHandover","inputs":[{"name":"pendingOwner","type":"address","internalType":"address"}],"outputs":[],"stateMutability":"payable"},{"type":"function","name":"configureRootPubkey","inputs":[{"name":"processorModel","type":"uint8","internalType":"enum ProcessorType"},{"name":"pubkey","type":"bytes","internalType":"bytes"}],"outputs":[],"stateMutability":"nonpayable"},{"type":"function","name":"fetchCa","inputs":[{"name":"processorModel","type":"uint8","internalType":"enum ProcessorType"},{"name":"vekType","type":"uint8","internalType":"enum CertType"}],"outputs":[{"name":"ask","type":"bytes","internalType":"bytes"},{"name":"ark","type":"bytes","internalType":"bytes"}],"stateMutability":"view"},{"type":"function","name":"fetchVek","inputs":[{"name":"processorModel","type":"uint8","internalType":"enum ProcessorType"},{"name":"vekType","type":"uint8","internalType":"enum CertType"},{"name":"reportedTcb","type":"tuple","internalType":"struct TcbVersion","components":[{"name":"bootloader","type":"uint8","internalType":"uint8"},{"name":"tee","type":"uint8","internalType":"uint8"},{"name":"snp","type":"uint8","internalType":"uint8"},{"name":"microcode","type":"uint8","internalType":"uint8"}]}],"outputs":[{"name":"vek","type":"bytes","internalType":"bytes"}],"stateMutability":"view"},{"type":"function","name":"getARKHash","inputs":[{"name":"processorModel","type":"uint8","internalType":"enum ProcessorType"}],"outputs":[{"name":"","type":"bytes32","internalType":"bytes32"}],"stateMutability":"view"},{"type":"function","name":"getASKHash","inputs":[{"name":"processorModel","type":"uint8","internalType":"enum ProcessorType"},{"name":"vekType","type":"uint8","internalType":"enum CertType"}],"outputs":[{"name":"","type":"bytes32","internalType":"bytes32"}],"stateMutability":"view"},{"type":"function","name":"getVEKHash","inputs":[{"name":"processorModel","type":"uint8","internalType":"enum ProcessorType"},{"name":"vekType","type":"uint8","internalType":"enum CertType"},{"name":"reportedTcb","type":"tuple","internalType":"struct TcbVersion","components":[{"name":"bootloader","type":"uint8","internalType":"uint8"},{"name":"tee","type":"uint8","internalType":"uint8"},{"name":"snp","type":"uint8","internalType":"uint8"},{"name":"microcode","type":"uint8","internalType":"uint8"}]}],"outputs":[{"name":"","type":"bytes32","internalType":"bytes32"}],"stateMutability":"view"},{"type":"function","name":"owner","inputs":[],"outputs":[{"name":"result","type":"address","internalType":"address"}],"stateMutability":"view"},{"type":"function","name":"ownershipHandoverExpiresAt","inputs":[{"name":"pendingOwner","type":"address","internalType":"address"}],"outputs":[{"name":"result","type":"uint256","internalType":"uint256"}],"stateMutability":"view"},{"type":"function","name":"renounceOwnership","inputs":[],"outputs":[],"stateMutability":"payable"},{"type":"function","name":"requestOwnershipHandover","inputs":[],"outputs":[],"stateMutability":"payable"},{"type":"function","name":"transferOwnership","inputs":[{"name":"newOwner","type":"address","internalType":"address"}],"outputs":[],"stateMutability":"payable"},{"type":"function","name":"upsertVekCaChain","inputs":[{"name":"certchain","type":"bytes[]","internalType":"bytes[]"},{"name":"seal","type":"bytes","internalType":"bytes"}],"outputs":[],"stateMutability":"nonpayable"},{"type":"function","name":"upsertVekCert","inputs":[{"name":"vek","type":"bytes","internalType":"bytes"},{"name":"seal","type":"bytes","internalType":"bytes"}],"outputs":[],"stateMutability":"nonpayable"},{"type":"function","name":"x509RiscZeroVerifier","inputs":[],"outputs":[{"name":"","type":"address","internalType":"contract IX509RiscZeroVerifier"}],"stateMutability":"view"},{"type":"event","name":"OwnershipHandoverCanceled","inputs":[{"name":"pendingOwner","type":"address","indexed":true,"internalType":"address"}],"anonymous":false},{"type":"event","name":"OwnershipHandoverRequested","inputs":[{"name":"pendingOwner","type":"address","indexed":true,"internalType":"address"}],"anonymous":false},{"type":"event","name":"OwnershipTransferred","inputs":[{"name":"oldOwner","type":"address","indexed":true,"internalType":"address"},{"name":"newOwner","type":"address","indexed":true,"internalType":"address"}],"anonymous":false},{"type":"error","name":"AlreadyInitialized","inputs":[]},{"type":"error","name":"Incorrect_Vek_CA_Chain_Length","inputs":[]},{"type":"error","name":"Invalid_Root_Key","inputs":[{"name":"processor","type":"uint8","internalType":"enum ProcessorType"}]},{"type":"error","name":"Invalid_Vek_CA_Cert","inputs":[]},{"type":"error","name":"Missing_Issuer","inputs":[{"name":"processor","type":"uint8","internalType":"enum ProcessorType"},{"name":"CertType","type":"uint8","internalType":"enum CertType"}]},{"type":"error","name":"NewOwnerIsZeroAddress","inputs":[]},{"type":"error","name":"NoHandoverRequest","inputs":[]},{"type":"error","name":"Unauthorized","inputs":[]},{"type":"error","name":"Unknown_Processor","inputs":[{"name":"processorName","type":"string","internalType":"string"}]},{"type":"error","name":"Unknown_Subject_Name","inputs":[]}],"bytecode":{"object":"0x60a060405234801561001057600080fd5b5060405161396e38038061396e83398101604081905261002f91610087565b6001600160a01b0381166080526100453361004b565b506100b7565b6001600160a01b0316638b78c6d8198190558060007f8be0079c531659141344cd1fd0a4f28419497f9722a3daafe3b4186f6b6457e08180a350565b60006020828403121561009957600080fd5b81516001600160a01b03811681146100b057600080fd5b9392505050565b60805161388e6100e06000396000818161011c0152818161078c0152610d23015261388e6000f3fe6080604052600436106100f35760003560e01c8063c3f8eaca1161008a578063f2fde38b11610059578063f2fde38b14610278578063fcbf70891461028b578063fcc554ed146102ab578063fee81cf4146102cb57600080fd5b8063c3f8eaca14610205578063d28eb99c14610225578063dbf7e8ad14610245578063f04e283e1461026557600080fd5b806374aacb55116100c657806374aacb55146101635780638da5cb5b146101915780639c965815146101aa578063adb3f1c3146101d757600080fd5b806325692962146100f857806354d1f13d146101025780636ea58be01461010a578063715018a61461015b575b600080fd5b6101006102fe565b005b61010061034e565b34801561011657600080fd5b5061013e7f000000000000000000000000000000000000000000000000000000000000000081565b6040516001600160a01b0390911681526020015b60405180910390f35b61010061038a565b34801561016f57600080fd5b5061018361017e366004612ef9565b61039e565b604051610152929190612f82565b34801561019d57600080fd5b50638b78c6d8195461013e565b3480156101b657600080fd5b506101ca6101c5366004612fa7565b6104fd565b6040516101529190612ffa565b3480156101e357600080fd5b506101f76101f2366004612fa7565b6105bf565b604051908152602001610152565b34801561021157600080fd5b506101f761022036600461300d565b6105ee565b34801561023157600080fd5b506101f7610240366004612ef9565b610610565b34801561025157600080fd5b50610100610260366004613073565b610636565b6101006102733660046130e4565b610845565b6101006102863660046130e4565b610885565b34801561029757600080fd5b506101006102a636600461310d565b6108ac565b3480156102b757600080fd5b506101006102c6366004613162565b61093f565b3480156102d757600080fd5b506101f76102e63660046130e4565b63389a75e1600c908152600091909152602090205490565b60006202a30067ffffffffffffffff164201905063389a75e1600c5233600052806020600c2055337fdbf36a107da19e49527a7176a1babf963b4b0ff8cde35ee35d6cd8f1f9ac7e1d600080a250565b63389a75e1600c523360005260006020600c2055337ffa7b8eab7da67f412cc9575ed43464468f9bfbae89d1675917346ca6d8fe3c92600080a2565b610392610d97565b61039c6000610db2565b565b60608060006103ad8585610df0565b905060006103ba86610e97565b60008381526020819052604090208054919250906103d7906131ed565b80601f0160208091040260200160405190810160405280929190818152602001828054610403906131ed565b80156104505780601f1061042557610100808354040283529160200191610450565b820191906000526020600020905b81548152906001019060200180831161043357829003601f168201915b505050505093506000808281526020019081526020016000208054610474906131ed565b80601f01602080910402602001604051908101604052809291908181526020018280546104a0906131ed565b80156104ed5780601f106104c2576101008083540402835291602001916104ed565b820191906000526020600020905b8154815290600101906020018083116104d057829003601f168201915b5050505050925050509250929050565b6060600061051a85856105153687900387018761324e565b610ec7565b6000818152602081905260409020805491925090610537906131ed565b80601f0160208091040260200160405190810160405280929190818152602001828054610563906131ed565b80156105b05780601f10610585576101008083540402835291602001916105b0565b820191906000526020600020905b81548152906001019060200180831161059357829003601f168201915b50505050509150509392505050565b6000806105d685856105153687900387018761324e565b60009081526001602052604090205495945050505050565b6000806105fa83610e97565b6000908152600160205260409020549392505050565b60008061061d8484610df0565b6000908152600160205260409020549150505b92915050565b60008060006106458787610f13565b50925092509250600080610659858561039e565b91509150815160000361068c5784846040516340bb110b60e01b8152600401610683929190613301565b60405180910390fd5b80516000036106b3578460026040516340bb110b60e01b8152600401610683929190613301565b60408051600380825260808201909252600091816020015b60608152602001906001900390816106cb57905050905089898080601f016020809104026020016040519081016040528093929190818152602001838380828437600092018290525085518694509092501515905061072c5761072c613327565b6020026020010181905250828160018151811061074b5761074b613327565b6020026020010181905250818160028151811061076a5761076a613327565b6020908102919091010152604051631d4bfa7f60e21b81526001600160a01b037f0000000000000000000000000000000000000000000000000000000000000000169063752fe9fc906107c59084908c908c9060040161333d565b60006040518083038186803b1580156107dd57600080fd5b505afa1580156107f1573d6000803e3d6000fd5b505050506108398a8a8080601f0160208091040260200160405190810160405280939291908181526020018383808284376000920191909152508a9250899150889050611180565b50505050505050505050565b61084d610d97565b63389a75e1600c52806000526020600c20805442111561087557636f5e88186000526004601cfd5b6000905561088281610db2565b50565b61088d610d97565b8060601b6108a357637448fbae6000526004601cfd5b61088281610db2565b6108b4610d97565b81816040516108c49291906133cd565b6040518091039020600260008560038111156108e2576108e26132cd565b60038111156108f3576108f36132cd565b815260200190815260200160002081905550600061091084610e97565b600081815260208190526040812091925061092b9190612e2e565b600090815260016020526040812055505050565b600283118061094c575082155b1561096a57604051631d338bf360e21b815260040160405180910390fd5b606060008585600081811061098157610981613327565b905060200281019061099391906133dd565b8080601f01602080910402602001604051908101604052809392919081815260200183838082843760009201829052509394508392506109d6915084905061120f565b9092509050600060038360038111156109f1576109f16132cd565b03610a655760408051600180825281830190925290816020015b6060815260200190600190039081610a0b579050509450610a2b826112f9565b9050610a378185611329565b8385600081518110610a4b57610a4b613327565b6020026020010181905250610a60848261139a565b610bf4565b6000610a7083611425565b909250905060008080610a8285610e97565b81526020019081526020016000208054610a9b906131ed565b80601f0160208091040260200160405190810160405280929190818152602001828054610ac7906131ed565b8015610b145780601f10610ae957610100808354040283529160200191610b14565b820191906000526020600020905b815481529060010190602001808311610af757829003601f168201915b5050505050905080516000148015610b5057508a8a6001818110610b3a57610b3a613327565b9050602002810190610b4c91906133dd565b1590505b15610b73578260026040516340bb110b60e01b8152600401610683929190613301565b805115610be6576040805160028082526060820190925290816020015b6060815260200190600190039081610b905790505096508587600081518110610bbb57610bbb613327565b60200260200101819052508087600181518110610bda57610bda613327565b60200260200101819052505b610bf18684846114d8565b50505b6002889003610d0c576040805160028082526060820190925290816020015b6060815260200190600190039081610c13579050509450600089896001818110610c3f57610c3f613327565b9050602002810190610c5191906133dd565b8080601f016020809104026020016040519081016040528093929190818152602001838380828437600092019190915250929350610c959250849150839050611329565b610c9f818361139a565b6040805160028082526060820190925290816020015b6060815260200190600190039081610cb55790505095508486600081518110610ce057610ce0613327565b60200260200101819052508086600181518110610cff57610cff613327565b6020026020010181905250505b604051631d4bfa7f60e21b81526001600160a01b037f0000000000000000000000000000000000000000000000000000000000000000169063752fe9fc90610d5c9088908b908b9060040161333d565b60006040518083038186803b158015610d7457600080fd5b505afa158015610d88573d6000803e3d6000fd5b50505050505050505050505050565b638b78c6d81954331461039c576382b429006000526004601cfd5b638b78c6d81980546001600160a01b039092169182907f8be0079c531659141344cd1fd0a4f28419497f9722a3daafe3b4186f6b6457e0600080a355565b600080826003811115610e0557610e056132cd565b1480610e2257506001826003811115610e2057610e206132cd565b145b610e665760405162461bcd60e51b8152602060048201526015602482015274496e76616c69642056454b2043657274205479706560581b6044820152606401610683565b8282604051602001610e79929190613424565b60405160208183030381529060405280519060200120905092915050565b600081604051602001610eaa919061344f565b604051602081830303815290604052805190602001209050919050565b600083838360000151846020015185604001518660600151604051602001610ef496959493929190613466565b6040516020818303038152906040528051906020012090509392505050565b6040805160808101825260008082526020820181905291810182905260608101829052819060606000610f7b87878080601f01602080910402602001604051908101604052809392919081815260200183838082843760009201919091525061156592505050565b90506000610faf604051806040016040528060018152602001602d60f81b81525083608001516116df90919063ffffffff16565b9050610ff96040518060400160405280600381526020016229a2ab60e91b81525082600081518110610fe357610fe3613327565b602002602001015161178a90919063ffffffff16565b61101657604051634cb8d6fb60e01b815260040160405180910390fd5b61104960405180604001604052806004815260200163564c454b60e01b81525082600181518110610fe357610fe3613327565b1561105757600194506110b1565b61108a604051806040016040528060048152602001635643454b60e01b81525082600181518110610fe357610fe3613327565b1561109857600094506110b1565b604051634cb8d6fb60e01b815260040160405180910390fd5b6110f688888080601f016020809104026020016040519081016040528093929190818152602001838380828437600092019190915250505050610140840151876117a0565b80945081955050506000611130604051806040016040528060018152602001602d60f81b81525084602001516116df90919063ffffffff16565b9050600061113d82611425565b9098509050806003811115611154576111546132cd565b876003811115611166576111666132cd565b14611173576111736134c0565b5050505092959194509250565b600061118d848484610ec7565b60008181526020819052604090209091506111a88682613524565b506002856040516111b991906135e3565b602060405180830381855afa1580156111d6573d6000803e3d6000fd5b5050506040513d601f19601f820116820180604052508101906111f991906135ff565b6000918252600160205260409091205550505050565b60006060600061121e84611b1a565b905061124c604051806040016040528060018152602001602d60f81b815250826116df90919063ffffffff16565b915060006112826040518060400160405280600381526020016241524b60e81b81525084600081518110610fe357610fe3613327565b905060006112b86040518060400160405280600381526020016229a2ab60e91b81525085600081518110610fe357610fe3613327565b905081156112c957600394506112f1565b80156112d857600294506112f1565b604051636aa4dd7f60e11b815260040160405180910390fd5b505050915091565b6000808260018151811061130f5761130f613327565b6020026020010151905061132281611b94565b9392505050565b600061133482611ce8565b915050808051906020012060026000856003811115611355576113556132cd565b6003811115611366576113666132cd565b8152602001908152602001600020541461139557826040516377b40b2360e01b81526004016106839190613618565b505050565b60006113a582610e97565b60008181526020819052604090209091506113c08482613524565b506002836040516113d191906135e3565b602060405180830381855afa1580156113ee573d6000803e3d6000fd5b5050506040513d601f19601f8201168201806040525081019061141191906135ff565b600091825260016020526040909120555050565b60008061145b60405180604001604052806004815260200163564c454b60e01b81525084600181518110610fe357610fe3613327565b156114685750600161146c565b5060005b60606001826003811115611482576114826132cd565b036114a9578360028151811061149a5761149a613327565b602002602001015190506114c7565b836001815181106114bc576114bc613327565b602002602001015190505b6114d081611b94565b925050915091565b60006114e48383610df0565b60008181526020819052604090209091506114ff8582613524565b5060028460405161151091906135e3565b602060405180830381855afa15801561152d573d6000803e3d6000fd5b5050506040513d601f19601f8201168201806040525081019061155091906135ff565b60009182526001602052604090912055505050565b61156d612e68565b600061157883611d78565b905060006115868483611d85565b90506115928482611e11565b61012084015260006115a48583611d85565b90506115b08582611e4c565b90506115c46115bf8683611e6c565b611e85565b84526115d08582611e4c565b90506115dc8582611e4c565b90506115e88582611eb6565b60208501526115f78582611e4c565b90506116038582611f7a565b606086015260408501526116178582611e4c565b90506116238582611eb6565b60808501526116328582611e4c565b9050611647856116428184611d85565b611fc4565b8560c0018660a001829052826003811115611664576116646132cd565b6003811115611675576116756132cd565b90525061168490508582611e4c565b61014085015260006116968684611e4c565b90506116a2868261217f565b8660e00187610100018290528260038111156116c0576116c06132cd565b60038111156116d1576116d16132cd565b815250505050505050919050565b606060006116ed84846122ea565b9050601f1960208201600183510160051b81018651838201526001845101845260005b8251606084528181146117555760405182820380825286601f8201165b8b85018101518382015287018061172d5750600082820160200152603f018616810160405284525b8751602094909401930190508183106117105750505050809150825161178357602081019150600281510382525b5092915050565b8051602091820120825192909101919091201490565b6040805160808101825260008082526020820181905291810182905260608101919091526060846001600160501b038516815181106117e1576117e1613327565b6020910101516001600160f81b03191660a360f81b146118365760405162461bcd60e51b815260206004820152601060248201526f2737ba1030b71032bc3a32b739b4b7b760811b6044820152606401610683565b60006118428686611d85565b905060006118508783611d85565b6040805160a0810182526000808252602082018190529181018290526060810182905260808101919091529091505b60a083901c6001600160501b031660a083901c6001600160501b03161015611b0f5760006118ad8984611d85565b905060006118bb8a83611e6c565b90506118c78a83611e4c565b915060006118d58b84611e6c565b9050611903826040518060400160405280600a8152602001692b060104019c7801030160b01b8152506123b5565b1561192c57611915816004600161243d565b61191e9061362b565b60f81c885260018452611a9d565b611958826040518060400160405280600a8152602001691583008200ce3c00818160b11b8152506123b5565b1561198a5761196a816004600161243d565b6119739061362b565b60f81c6020808a0191909152600190850152611a9d565b6119b6826040518060400160405280600a8152602001692b060104019c7801030360b01b8152506123b5565b156119e8576119c8816004600161243d565b6119d19061362b565b60f81c6040808a0191909152600190850152611a9d565b611a14826040518060400160405280600a8152602001690560c02080338f00206160b31b8152506123b5565b15611a4657611a26816004600161243d565b611a2f9061362b565b60f81c6060808a0191909152600190850152611a9d565b6000896003811115611a5a57611a5a6132cd565b148015611a8d5750611a8d82604051806040016040528060098152602001680ac1804100671e004160ba1b8152506123b5565b15611a9d57600160808501529550855b83518015611aac575083602001515b8015611ab9575083604001515b8015611ac6575083606001515b8015611aee57506001896003811115611ae157611ae16132cd565b1480611aee575083608001515b15611afb57505050611b0f565b611b058b86611e4c565b945050505061187f565b505050935093915050565b60606000611b2783611d78565b90506000611b358483611d85565b90506000611b438583611d85565b9050611b4f8582611e4c565b9050611b5b8582611e4c565b9050611b678582611e4c565b9050611b738582611e4c565b9050611b7f8582611e4c565b9050611b8b8582611eb6565b95945050505050565b6000611bc66040518060400160405280600581526020016426b4b630b760d91b8152508361178a90919063ffffffff16565b15611bd357506000919050565b60408051808201909152600581526447656e6f6160d81b6020918201528251908301207f5bd5d11b1fbc746760ffb1745af2a88f4bc17ea67148f1f7d99e371ad29c759e03611c2457506001919050565b60408051808201909152600781526642657267616d6f60c81b6020918201528251908301207f0e0b58e0553233fdfb9e1639286575820bf2a9f95a56fabfb8d57227ebb83af603611c7757506002919050565b6040805180820190915260058152645369656e6160d81b6020918201528251908301207f4641cbd986b24e84283f8d0d1e415935ddfd69aae6d483b756d087d4bee5b9f603611cc857506003919050565b816040516307fd8bb360e31b81526004016106839190612ffa565b919050565b600060606000611cf784611d78565b90506000611d058583611d85565b90506000611d138683611d85565b9050611d1f8682611e4c565b9050611d2b8682611e4c565b9050611d378682611e4c565b9050611d438682611e4c565b9050611d4f8682611e4c565b9050611d5b8682611e4c565b9050611d6b866116428184611d85565b9097909650945050505050565b60006106308260006124bf565b6000826001600160501b03831681518110611da257611da2613327565b0160200151600160fd1b90811614611df55760405162461bcd60e51b81526020600482015260166024820152754e6f74206120636f6e7374727563746564207479706560501b6044820152606401610683565b61132283605084901c6001600160501b03166124bf565b6124bf565b60606113226001600160501b038316805b611e3a6001600160501b0360a087901c16600161367f565b611e449190613692565b85919061243d565b60006113228360a084901c6001600160501b03165b611e0c90600161367f565b60606113226001600160501b03605084901c1680611e22565b60008082516020611e969190613692565b611ea19060086136a5565b905080611ead846136bc565b901c9392505050565b60606000611ec48484611d85565b90505b8015611783576000611ed98583611d85565b9050611ee58582611d85565b60408051808201909152600381526255040360e81b6020820152909150611f1690611f108784611e6c565b90612674565b15611f3c57611f258582611e4c565b9050611f318582611e6c565b925060009150611f74565b60a084901c6001600160501b031660a083901c6001600160501b03161015611f6f57611f688583611e4c565b9150611f74565b600091505b50611ec7565b60008080611f888585611d85565b90506000611f968683611e4c565b9050611faa611fa58784611e6c565b612692565b9350611fb9611fa58783611e6c565b925050509250929050565b6000606081611fd38585611d85565b90506000611fe18683611e6c565b9050612015604051806040016040528060078152602001662a8648ce3d020160c81b8152508261267490919063ffffffff16565b156120c1576120248683611e4c565b91506120308683611e6c565b9050612065604051806040016040528060088152602001672a8648ce3d03010760c01b8152508261267490919063ffffffff16565b1561207357600193506120a4565b60408051808201909152600581526415c082001160d91b602082015261209a908290612674565b156120a457600293505b6120ae8686611e4c565b94506120ba8686612b32565b9250612176565b6040805180820190915260098152682a864886f70d01010160b81b60208201526120ec908290612674565b1561217657600393506120ff8686611e4c565b9450600061210d8787612b32565b905061211881611d78565b95506121248187611d85565b955060006121328288611e6c565b905061213e8288611e4c565b9650600061214c8389611e6c565b90508082604051602001612161929190612f82565b60405160208183030381529060405295505050505b50509250929050565b600060608161218e8585611d85565b9050600061219c8683611e6c565b90506121d160405180604001604052806008815260200167154324671e82018160c11b8152508261267490919063ffffffff16565b156121df576001935061224c565b6040805180820190915260088152672a8648ce3d04030360c01b6020820152612209908290612674565b15612217576002935061224c565b6040805180820190915260098152682a864886f70d01010b60b81b6020820152612242908290612674565b1561224c57600393505b6122568686611e4c565b9450600384600381111561226c5761226c6132cd565b0361227b576120ba8686612b32565b6122858686612c4a565b94506122918686611d85565b9450600061229f8787611e6c565b90506122ab8787611e4c565b955060006122b98888611e6c565b905081816040516020016122ce929190612f82565b6040516020818303038152906040529450505050509250929050565b6060815183518111611783576040519150602084016020830160018387518401030160006020851061231f5784602088012090505b6020870151601f861660200360031b5b8551828118821c6123885783156123625783888820146123625760018701965084871061235c5750612397565b5061232f565b60208b0187038652602086019550878701965087156123885784871061235c5750612397565b5060018601955083861061232f575b50505050601f198482030160051c8452602001604052505092915050565b600081518351146123c857506000610630565b60005b8351811015612433578281815181106123e6576123e6613327565b602001015160f81c60f81b6001600160f81b03191684828151811061240d5761240d613327565b01602001516001600160f81b0319161461242b576000915050610630565b6001016123cb565b5060019392505050565b825160609061244c838561367f565b111561245757600080fd5b60008267ffffffffffffffff81111561247257612472613227565b6040519080825280601f01601f19166020018201604052801561249c576020820181803683370190505b509050602080820190868601016124b4828287612cd6565b509095945050505050565b6000808080856124d086600161367f565b815181106124e0576124e0613327565b0160200151600160ff1b1660000361254b57856124fe86600161367f565b8151811061250e5761250e613327565b016020015160f81c925061252385600261367f565b9150600161253a846001600160501b03851661367f565b6125449190613692565b905061263f565b60008661255987600161367f565b8151811061256957612569613327565b60209101015160f81c607f169050600181900361259f5761259561258e87600261367f565b8890612d5a565b60ff169350612601565b8060ff166002036125ca576125bf6125b887600261367f565b8890612d7e565b61ffff169350612601565b6125d58160206136e0565b6125e09060086136f9565b60ff166125fc6125f188600261367f565b899060ff8516612da6565b901c93505b60ff811661261087600261367f565b61261a919061367f565b92506001612631856001600160501b03861661367f565b61263b9190613692565b9150505b69ffffffffffffffffffff60a01b60a082901b1669ffffffffffffffffffff60501b605084901b168617179695505050505050565b60008151835114801561132257506113228360008460008751612de7565b6000806000806000806000808851600d036126f857600560308a6000815181106126be576126be613327565b01602001516126d0919060f81c6136e0565b60ff1610156126ec576126e56107d088613715565b965061277e565b6126e561076c88613715565b60308960018151811061270d5761270d613327565b016020015161271f919060f81c6136e0565b61272a9060646136f9565b60ff1660308a60008151811061274257612742613327565b0160200151612754919060f81c6136e0565b6127639060ff166103e861372f565b61276d9190613715565b6127779088613715565b9650600290505b60308961278c83600161374c565b60ff168151811061279f5761279f613327565b016020015160f81c60308b6127b585600061374c565b60ff16815181106127c8576127c8613327565b01602001516127da919060f81c6136e0565b6127e590600a6136f9565b6127ef919061374c565b6127f991906136e0565b6128069060ff1688613715565b965060308961281683600361374c565b60ff168151811061282957612829613327565b016020015160f81c60308b61283f85600261374c565b60ff168151811061285257612852613327565b0160200151612864919060f81c6136e0565b61286f90600a6136f9565b612879919061374c565b61288391906136e0565b955060308961289383600561374c565b60ff16815181106128a6576128a6613327565b016020015160f81c60308b6128bc85600461374c565b60ff16815181106128cf576128cf613327565b01602001516128e1919060f81c6136e0565b6128ec90600a6136f9565b6128f6919061374c565b61290091906136e0565b61290a908661374c565b945060308961291a83600761374c565b60ff168151811061292d5761292d613327565b016020015160f81c60308b61294385600661374c565b60ff168151811061295657612956613327565b0160200151612968919060f81c6136e0565b61297390600a6136f9565b61297d919061374c565b61298791906136e0565b612991908561374c565b93506030896129a183600961374c565b60ff16815181106129b4576129b4613327565b016020015160f81c60308b6129ca85600861374c565b60ff16815181106129dd576129dd613327565b01602001516129ef919060f81c6136e0565b6129fa90600a6136f9565b612a04919061374c565b612a0e91906136e0565b612a18908461374c565b9250603089612a2883600b61374c565b60ff1681518110612a3b57612a3b613327565b016020015160f81c60308b612a5185600a61374c565b60ff1681518110612a6457612a64613327565b0160200151612a76919060f81c6136e0565b612a8190600a6136f9565b612a8b919061374c565b612a9591906136e0565b612a9f908361374c565b9150612b258761ffff168760ff168760ff168760ff168760ff168760ff16600081603c8402610e108602620afa6c1961019060038b108c0381810462023ab10260649290910691820461016d830260029390931c9290920161f4ff600c60098f01060261030101600b1c8c01019190910301016201518002010101979650505050505050565b9998505050505050505050565b6060826001600160501b03831681518110612b4f57612b4f613327565b6020910101516001600160f81b031916600360f81b14612ba75760405162461bcd60e51b81526020600482015260136024820152724e6f7420747970652042495420535452494e4760681b6044820152606401610683565b82605083901c6001600160501b031681518110612bc657612bc6613327565b01602001516001600160f81b03191615612bdf57600080fd5b6000605083901c6001600160501b031660a084901c6001600160501b0316612c0890600161367f565b612c129190613692565b9050612c42612c2f6001600160501b03605086901c16600161367f565b612c3a600184613692565b86919061243d565b949350505050565b6000826001600160501b03831681518110612c6757612c67613327565b6020910101516001600160f81b031916600360f81b14612cbf5760405162461bcd60e51b81526020600482015260136024820152724e6f7420747970652042495420535452494e4760681b6044820152606401610683565b61132283605084901c6001600160501b0316611e61565b60208110612d0e5781518352612ced60208461367f565b9250612cfa60208361367f565b9150612d07602082613692565b9050612cd6565b600081600003612d215750600019612d47565b6001612d2e836020613692565b612d3a9061010061384c565b612d449190613692565b90505b9151835183169219169190911790915250565b6000828281518110612d6e57612d6e613327565b016020015160f81c905092915050565b8151600090612d8e83600261367f565b1115612d9957600080fd5b50016002015161ffff1690565b60006020821115612db657600080fd5b8351612dc2838561367f565b1115612dcd57600080fd5b506020919092018101519190036101000a60001901191690565b6000612df4848484612e0a565b612dff878785612e0a565b149695505050505050565b8251600090612e19838561367f565b1115612e2457600080fd5b5091016020012090565b508054612e3a906131ed565b6000825580601f10612e4a575050565b601f0160209004906000526020600020908101906108829190612ed3565b60405180610160016040528060008152602001606081526020016000815260200160008152602001606081526020016060815260200160006003811115612eb157612eb16132cd565b8152602001600081526020016060815260200160608152602001600081525090565b5b80821115612ee85760008155600101612ed4565b5090565b6004811061088257600080fd5b60008060408385031215612f0c57600080fd5b8235612f1781612eec565b91506020830135612f2781612eec565b809150509250929050565b60005b83811015612f4d578181015183820152602001612f35565b50506000910152565b60008151808452612f6e816020860160208601612f32565b601f01601f19169290920160200192915050565b604081526000612f956040830185612f56565b8281036020840152611b8b8185612f56565b600080600083850360c0811215612fbd57600080fd5b8435612fc881612eec565b93506020850135612fd881612eec565b92506080603f1982011215612fec57600080fd5b506040840190509250925092565b6020815260006113226020830184612f56565b60006020828403121561301f57600080fd5b813561132281612eec565b60008083601f84011261303c57600080fd5b50813567ffffffffffffffff81111561305457600080fd5b60208301915083602082850101111561306c57600080fd5b9250929050565b6000806000806040858703121561308957600080fd5b843567ffffffffffffffff8111156130a057600080fd5b6130ac8782880161302a565b909550935050602085013567ffffffffffffffff8111156130cc57600080fd5b6130d88782880161302a565b95989497509550505050565b6000602082840312156130f657600080fd5b81356001600160a01b038116811461132257600080fd5b60008060006040848603121561312257600080fd5b833561312d81612eec565b9250602084013567ffffffffffffffff81111561314957600080fd5b6131558682870161302a565b9497909650939450505050565b6000806000806040858703121561317857600080fd5b843567ffffffffffffffff81111561318f57600080fd5b8501601f810187136131a057600080fd5b803567ffffffffffffffff8111156131b757600080fd5b8760208260051b84010111156131cc57600080fd5b60209182019550935085013567ffffffffffffffff8111156130cc57600080fd5b600181811c9082168061320157607f821691505b60208210810361322157634e487b7160e01b600052602260045260246000fd5b50919050565b634e487b7160e01b600052604160045260246000fd5b803560ff81168114611ce357600080fd5b6000608082840312801561326157600080fd5b506040516080810167ffffffffffffffff8111828210171561328557613285613227565b6040526132918361323d565b815261329f6020840161323d565b60208201526132b06040840161323d565b60408201526132c16060840161323d565b60608201529392505050565b634e487b7160e01b600052602160045260246000fd5b6004811061088257634e487b7160e01b600052602160045260246000fd5b6040810161330e846132e3565b83825261331a836132e3565b8260208301529392505050565b634e487b7160e01b600052603260045260246000fd5b6000604082016040835280865180835260608501915060608160051b86010192506020880160005b8281101561339657605f19878603018452613381858351612f56565b94506020938401939190910190600101613365565b505050508281036020840152838152838560208301376000602085830101526020601f19601f860116820101915050949350505050565b8183823760009101908152919050565b6000808335601e198436030181126133f457600080fd5b83018035915067ffffffffffffffff82111561340f57600080fd5b60200191503681900382131561306c57600080fd5b61342d836132e3565b8260f81b815261343c826132e3565b60f89190911b6001820152600201919050565b613458826132e3565b60f89190911b815260010190565b61346f876132e3565b8660f81b815261347e866132e3565b60f895861b60018201526001600160f81b031994861b8516600282015292851b8416600384015290841b8316600483015290921b166005820152600601919050565b634e487b7160e01b600052600160045260246000fd5b601f82111561139557806000526020600020601f840160051c810160208510156134fd5750805b601f840160051c820191505b8181101561351d5760008155600101613509565b5050505050565b815167ffffffffffffffff81111561353e5761353e613227565b6135528161354c84546131ed565b846134d6565b6020601f821160018114613586576000831561356e5750848201515b600019600385901b1c1916600184901b17845561351d565b600084815260208120601f198516915b828110156135b65787850151825560209485019460019092019101613596565b50848210156135d45786840151600019600387901b60f8161c191681555b50505050600190811b01905550565b600082516135f5818460208701612f32565b9190910192915050565b60006020828403121561361157600080fd5b5051919050565b60208101613625836132e3565b91905290565b805160208201516001600160f81b0319811691906001821015613662576001600160f81b0319600183900360031b81901b82161692505b5050919050565b634e487b7160e01b600052601160045260246000fd5b8082018082111561063057610630613669565b8181038181111561063057610630613669565b808202811582820484141761063057610630613669565b805160208083015191908110156132215760001960209190910360031b1b16919050565b60ff828116828216039081111561063057610630613669565b60ff818116838216029081169081811461178357611783613669565b61ffff818116838216019081111561063057610630613669565b61ffff818116838216029081169081811461178357611783613669565b60ff818116838216019081111561063057610630613669565b6001815b60018411156137a05780850481111561378457613784613669565b600184161561379257908102905b60019390931c928002613769565b935093915050565b6000826137b757506001610630565b816137c457506000610630565b81600181146137da57600281146137e457613800565b6001915050610630565b60ff8411156137f5576137f5613669565b50506001821b610630565b5060208310610133831016604e8410600b8410161715613823575081810a610630565b6138306000198484613765565b806000190482111561384457613844613669565b029392505050565b600061132283836137a856fea2646970667358221220660897e31203d43fe33e5d809421cf6ef6cde2002bb22a96fd578f8625c9643364736f6c634300081b0033","linkReferences":{}},"methodIdentifiers":{"cancelOwnershipHandover()":"54d1f13d","completeOwnershipHandover(address)":"f04e283e","configureRootPubkey(uint8,bytes)":"fcbf7089","fetchCa(uint8,uint8)":"74aacb55","fetchVek(uint8,uint8,(uint8,uint8,uint8,uint8))":"9c965815","getARKHash(uint8)":"c3f8eaca","getASKHash(uint8,uint8)":"d28eb99c","getVEKHash(uint8,uint8,(uint8,uint8,uint8,uint8))":"adb3f1c3","owner()":"8da5cb5b","ownershipHandoverExpiresAt(address)":"fee81cf4","renounceOwnership()":"715018a6","requestOwnershipHandover()":"25692962","transferOwnership(address)":"f2fde38b","upsertVekCaChain(bytes[],bytes)":"fcc554ed","upsertVekCert(bytes,bytes)":"dbf7e8ad","x509RiscZeroVerifier()":"6ea58be0"},"id":36}