{"abi":[{"type":"function","name":"fetchCa","inputs":[{"name":"processorModel","type":"uint8","internalType":"enum ProcessorType"},{"name":"vekType","type":"uint8","internalType":"enum CertType"}],"outputs":[{"name":"ask","type":"bytes","internalType":"bytes"},{"name":"ark","type":"bytes","internalType":"bytes"}],"stateMutability":"view"},{"type":"function","name":"fetchVek","inputs":[{"name":"processorModel","type":"uint8","internalType":"enum ProcessorType"},{"name":"vekType","type":"uint8","internalType":"enum CertType"},{"name":"reportedTcb","type":"tuple","internalType":"struct TcbVersion","components":[{"name":"bootloader","type":"uint8","internalType":"uint8"},{"name":"tee","type":"uint8","internalType":"uint8"},{"name":"snp","type":"uint8","internalType":"uint8"},{"name":"microcode","type":"uint8","internalType":"uint8"}]}],"outputs":[{"name":"vek","type":"bytes","internalType":"bytes"}],"stateMutability":"view"},{"type":"function","name":"getARKHash","inputs":[{"name":"processorModel","type":"uint8","internalType":"enum ProcessorType"}],"outputs":[{"name":"","type":"bytes32","internalType":"bytes32"}],"stateMutability":"view"},{"type":"function","name":"getASKHash","inputs":[{"name":"processorModel","type":"uint8","internalType":"enum ProcessorType"},{"name":"vekType","type":"uint8","internalType":"enum CertType"}],"outputs":[{"name":"","type":"bytes32","internalType":"bytes32"}],"stateMutability":"view"},{"type":"function","name":"getVEKHash","inputs":[{"name":"processorModel","type":"uint8","internalType":"enum ProcessorType"},{"name":"vekType","type":"uint8","internalType":"enum CertType"},{"name":"reportedTcb","type":"tuple","internalType":"struct TcbVersion","components":[{"name":"bootloader","type":"uint8","internalType":"uint8"},{"name":"tee","type":"uint8","internalType":"uint8"},{"name":"snp","type":"uint8","internalType":"uint8"},{"name":"microcode","type":"uint8","internalType":"uint8"}]}],"outputs":[{"name":"","type":"bytes32","internalType":"bytes32"}],"stateMutability":"view"},{"type":"function","name":"upsertVekCaChain","inputs":[{"name":"certchain","type":"bytes[]","internalType":"bytes[]"},{"name":"","type":"bytes","internalType":"bytes"}],"outputs":[],"stateMutability":"nonpayable"},{"type":"function","name":"upsertVekCert","inputs":[{"name":"vek","type":"bytes","internalType":"bytes"},{"name":"","type":"bytes","internalType":"bytes"}],"outputs":[],"stateMutability":"nonpayable"},{"type":"error","name":"Incorrect_Vek_CA_Chain_Length","inputs":[]},{"type":"error","name":"Invalid_Vek_CA_Cert","inputs":[]},{"type":"error","name":"Unknown_Processor","inputs":[{"name":"processorName","type":"string","internalType":"string"}]},{"type":"error","name":"Unknown_Subject_Name","inputs":[]}],"bytecode":{"object":"0x6080604052348015600f57600080fd5b50612d398061001f6000396000f3fe608060405234801561001057600080fd5b506004361061007d5760003560e01c8063c3f8eaca1161005b578063c3f8eaca146100ed578063d28eb99c14610100578063dbf7e8ad14610113578063fcc554ed1461012857600080fd5b806374aacb55146100825780639c965815146100ac578063adb3f1c3146100cc575b600080fd5b6100956100903660046124fd565b61013b565b6040516100a3929190612586565b60405180910390f35b6100bf6100ba3660046125ab565b61029a565b6040516100a391906125fe565b6100df6100da3660046125ab565b61035c565b6040519081526020016100a3565b6100df6100fb366004612611565b61038b565b6100df61010e3660046124fd565b6103ad565b610126610121366004612677565b6103d3565b005b6101266101363660046126e8565b610436565b606080600061014a8585610540565b90506000610157866105ec565b600083815260208190526040902080549192509061017490612773565b80601f01602080910402602001604051908101604052809291908181526020018280546101a090612773565b80156101ed5780601f106101c2576101008083540402835291602001916101ed565b820191906000526020600020905b8154815290600101906020018083116101d057829003601f168201915b50505050509350600080828152602001908152602001600020805461021190612773565b80601f016020809104026020016040519081016040528092919081815260200182805461023d90612773565b801561028a5780601f1061025f5761010080835404028352916020019161028a565b820191906000526020600020905b81548152906001019060200180831161026d57829003601f168201915b5050505050925050509250929050565b606060006102b785856102b2368790038701876127d4565b61061c565b60008181526020819052604090208054919250906102d490612773565b80601f016020809104026020016040519081016040528092919081815260200182805461030090612773565b801561034d5780601f106103225761010080835404028352916020019161034d565b820191906000526020600020905b81548152906001019060200180831161033057829003601f168201915b50505050509150509392505050565b60008061037385856102b2368790038701876127d4565b60009081526001602052604090205495945050505050565b600080610397836105ec565b6000908152600160205260409020549392505050565b6000806103ba8484610540565b6000908152600160205260409020549150505b92915050565b60008060006103e28787610668565b5092509250925061042d87878080601f0160208091040260200160405190810160405280939291908181526020018383808284376000920191909152508792508691508590506108d5565b50505050505050565b6002831180610443575082155b1561046157604051631d338bf360e21b815260040160405180910390fd5b60005b8381101561053957600085858381811061048057610480612853565b90506020028101906104929190612869565b8080601f01602080910402602001604051908101604052809392919081815260200183838082843760009201829052509394508392506104d59150849050610964565b909250905060038260038111156104ee576104ee6128b0565b036105105760006104fe82610a4e565b905061050a8482610a7e565b5061052e565b60008061051c83610b09565b9150915061052b858383610bbc565b50505b505050600101610464565b5050505050565b600080826003811115610555576105556128b0565b148061057257506001826003811115610570576105706128b0565b145b6105bb5760405162461bcd60e51b8152602060048201526015602482015274496e76616c69642056454b2043657274205479706560581b60448201526064015b60405180910390fd5b82826040516020016105ce9291906128e4565b60405160208183030381529060405280519060200120905092915050565b6000816040516020016105ff919061290f565b604051602081830303815290604052805190602001209050919050565b60008383836000015184602001518560400151866060015160405160200161064996959493929190612926565b6040516020818303038152906040528051906020012090509392505050565b60408051608081018252600080825260208201819052918101829052606081018290528190606060006106d087878080601f016020809104026020016040519081016040528093929190818152602001838380828437600092019190915250610c4992505050565b90506000610704604051806040016040528060018152602001602d60f81b8152508360800151610dc390919063ffffffff16565b905061074e6040518060400160405280600381526020016229a2ab60e91b8152508260008151811061073857610738612853565b6020026020010151610e6e90919063ffffffff16565b61076b57604051634cb8d6fb60e01b815260040160405180910390fd5b61079e60405180604001604052806004815260200163564c454b60e01b8152508260018151811061073857610738612853565b156107ac5760019450610806565b6107df604051806040016040528060048152602001635643454b60e01b8152508260018151811061073857610738612853565b156107ed5760009450610806565b604051634cb8d6fb60e01b815260040160405180910390fd5b61084b88888080601f01602080910402602001604051908101604052809392919081815260200183838082843760009201919091525050505061014084015187610e84565b80945081955050506000610885604051806040016040528060018152602001602d60f81b8152508460200151610dc390919063ffffffff16565b9050600061089282610b09565b90985090508060038111156108a9576108a96128b0565b8760038111156108bb576108bb6128b0565b146108c8576108c8612980565b5050505092959194509250565b60006108e284848461061c565b60008181526020819052604090209091506108fd86826129e2565b5060028560405161090e9190612aa1565b602060405180830381855afa15801561092b573d6000803e3d6000fd5b5050506040513d601f19601f8201168201806040525081019061094e9190612abd565b6000918252600160205260409091205550505050565b600060606000610973846111fe565b90506109a1604051806040016040528060018152602001602d60f81b81525082610dc390919063ffffffff16565b915060006109d76040518060400160405280600381526020016241524b60e81b8152508460008151811061073857610738612853565b90506000610a0d6040518060400160405280600381526020016229a2ab60e91b8152508560008151811061073857610738612853565b90508115610a1e5760039450610a46565b8015610a2d5760029450610a46565b604051636aa4dd7f60e11b815260040160405180910390fd5b505050915091565b60008082600181518110610a6457610a64612853565b60200260200101519050610a7781611278565b9392505050565b6000610a89826105ec565b6000818152602081905260409020909150610aa484826129e2565b50600283604051610ab59190612aa1565b602060405180830381855afa158015610ad2573d6000803e3d6000fd5b5050506040513d601f19601f82011682018060405250810190610af59190612abd565b600091825260016020526040909120555050565b600080610b3f60405180604001604052806004815260200163564c454b60e01b8152508460018151811061073857610738612853565b15610b4c57506001610b50565b5060005b60606001826003811115610b6657610b666128b0565b03610b8d5783600281518110610b7e57610b7e612853565b60200260200101519050610bab565b83600181518110610ba057610ba0612853565b602002602001015190505b610bb481611278565b925050915091565b6000610bc88383610540565b6000818152602081905260409020909150610be385826129e2565b50600284604051610bf49190612aa1565b602060405180830381855afa158015610c11573d6000803e3d6000fd5b5050506040513d601f19601f82011682018060405250810190610c349190612abd565b60009182526001602052604090912055505050565b610c51612482565b6000610c5c836113cc565b90506000610c6a84836113d9565b9050610c768482611465565b6101208401526000610c8885836113d9565b9050610c9485826114a0565b9050610ca8610ca386836114c0565b6114d9565b8452610cb485826114a0565b9050610cc085826114a0565b9050610ccc858261150a565b6020850152610cdb85826114a0565b9050610ce785826115ce565b60608601526040850152610cfb85826114a0565b9050610d07858261150a565b6080850152610d1685826114a0565b9050610d2b85610d2681846113d9565b611618565b8560c0018660a001829052826003811115610d4857610d486128b0565b6003811115610d5957610d596128b0565b905250610d68905085826114a0565b6101408501526000610d7a86846114a0565b9050610d8686826117d3565b8660e0018761010001829052826003811115610da457610da46128b0565b6003811115610db557610db56128b0565b815250505050505050919050565b60606000610dd1848461193e565b9050601f1960208201600183510160051b81018651838201526001845101845260005b825160608452818114610e395760405182820380825286601f8201165b8b850181015183820152870180610e115750600082820160200152603f018616810160405284525b875160209490940193019050818310610df457505050508091508251610e6757602081019150600281510382525b5092915050565b8051602091820120825192909101919091201490565b6040805160808101825260008082526020820181905291810182905260608101919091526060846001600160501b03851681518110610ec557610ec5612853565b6020910101516001600160f81b03191660a360f81b14610f1a5760405162461bcd60e51b815260206004820152601060248201526f2737ba1030b71032bc3a32b739b4b7b760811b60448201526064016105b2565b6000610f2686866113d9565b90506000610f3487836113d9565b6040805160a0810182526000808252602082018190529181018290526060810182905260808101919091529091505b60a083901c6001600160501b031660a083901c6001600160501b031610156111f3576000610f9189846113d9565b90506000610f9f8a836114c0565b9050610fab8a836114a0565b91506000610fb98b846114c0565b9050610fe7826040518060400160405280600a8152602001692b060104019c7801030160b01b815250611a09565b1561101057610ff98160046001611a91565b61100290612ad6565b60f81c885260018452611181565b61103c826040518060400160405280600a8152602001691583008200ce3c00818160b11b815250611a09565b1561106e5761104e8160046001611a91565b61105790612ad6565b60f81c6020808a0191909152600190850152611181565b61109a826040518060400160405280600a8152602001692b060104019c7801030360b01b815250611a09565b156110cc576110ac8160046001611a91565b6110b590612ad6565b60f81c6040808a0191909152600190850152611181565b6110f8826040518060400160405280600a8152602001690560c02080338f00206160b31b815250611a09565b1561112a5761110a8160046001611a91565b61111390612ad6565b60f81c6060808a0191909152600190850152611181565b600089600381111561113e5761113e6128b0565b148015611171575061117182604051806040016040528060098152602001680ac1804100671e004160ba1b815250611a09565b1561118157600160808501529550855b83518015611190575083602001515b801561119d575083604001515b80156111aa575083606001515b80156111d2575060018960038111156111c5576111c56128b0565b14806111d2575083608001515b156111df575050506111f3565b6111e98b866114a0565b9450505050610f63565b505050935093915050565b6060600061120b836113cc565b9050600061121984836113d9565b9050600061122785836113d9565b905061123385826114a0565b905061123f85826114a0565b905061124b85826114a0565b905061125785826114a0565b905061126385826114a0565b905061126f858261150a565b95945050505050565b60006112aa6040518060400160405280600581526020016426b4b630b760d91b81525083610e6e90919063ffffffff16565b156112b757506000919050565b60408051808201909152600581526447656e6f6160d81b6020918201528251908301207f5bd5d11b1fbc746760ffb1745af2a88f4bc17ea67148f1f7d99e371ad29c759e0361130857506001919050565b60408051808201909152600781526642657267616d6f60c81b6020918201528251908301207f0e0b58e0553233fdfb9e1639286575820bf2a9f95a56fabfb8d57227ebb83af60361135b57506002919050565b6040805180820190915260058152645369656e6160d81b6020918201528251908301207f4641cbd986b24e84283f8d0d1e415935ddfd69aae6d483b756d087d4bee5b9f6036113ac57506003919050565b816040516307fd8bb360e31b81526004016105b291906125fe565b919050565b60006103cd826000611b13565b6000826001600160501b038316815181106113f6576113f6612853565b0160200151600160fd1b908116146114495760405162461bcd60e51b81526020600482015260166024820152754e6f74206120636f6e7374727563746564207479706560501b60448201526064016105b2565b610a7783605084901c6001600160501b0316611b13565b611b13565b6060610a776001600160501b038316805b61148e6001600160501b0360a087901c166001612b2a565b6114989190612b3d565b859190611a91565b6000610a778360a084901c6001600160501b03165b611460906001612b2a565b6060610a776001600160501b03605084901c1680611476565b600080825160206114ea9190612b3d565b6114f5906008612b50565b90508061150184612b67565b901c9392505050565b6060600061151884846113d9565b90505b8015610e6757600061152d85836113d9565b905061153985826113d9565b60408051808201909152600381526255040360e81b602082015290915061156a9061156487846114c0565b90611cc8565b156115905761157985826114a0565b905061158585826114c0565b9250600091506115c8565b60a084901c6001600160501b031660a083901c6001600160501b031610156115c3576115bc85836114a0565b91506115c8565b600091505b5061151b565b600080806115dc85856113d9565b905060006115ea86836114a0565b90506115fe6115f987846114c0565b611ce6565b935061160d6115f987836114c0565b925050509250929050565b600060608161162785856113d9565b9050600061163586836114c0565b9050611669604051806040016040528060078152602001662a8648ce3d020160c81b81525082611cc890919063ffffffff16565b156117155761167886836114a0565b915061168486836114c0565b90506116b9604051806040016040528060088152602001672a8648ce3d03010760c01b81525082611cc890919063ffffffff16565b156116c757600193506116f8565b60408051808201909152600581526415c082001160d91b60208201526116ee908290611cc8565b156116f857600293505b61170286866114a0565b945061170e8686612186565b92506117ca565b6040805180820190915260098152682a864886f70d01010160b81b6020820152611740908290611cc8565b156117ca576003935061175386866114a0565b945060006117618787612186565b905061176c816113cc565b955061177881876113d9565b9550600061178682886114c0565b905061179282886114a0565b965060006117a083896114c0565b905080826040516020016117b5929190612586565b60405160208183030381529060405295505050505b50509250929050565b60006060816117e285856113d9565b905060006117f086836114c0565b905061182560405180604001604052806008815260200167154324671e82018160c11b81525082611cc890919063ffffffff16565b1561183357600193506118a0565b6040805180820190915260088152672a8648ce3d04030360c01b602082015261185d908290611cc8565b1561186b57600293506118a0565b6040805180820190915260098152682a864886f70d01010b60b81b6020820152611896908290611cc8565b156118a057600393505b6118aa86866114a0565b945060038460038111156118c0576118c06128b0565b036118cf5761170e8686612186565b6118d9868661229e565b94506118e586866113d9565b945060006118f387876114c0565b90506118ff87876114a0565b9550600061190d88886114c0565b90508181604051602001611922929190612586565b6040516020818303038152906040529450505050509250929050565b6060815183518111610e6757604051915060208401602083016001838751840103016000602085106119735784602088012090505b6020870151601f861660200360031b5b8551828118821c6119dc5783156119b65783888820146119b6576001870196508487106119b057506119eb565b50611983565b60208b0187038652602086019550878701965087156119dc578487106119b057506119eb565b50600186019550838610611983575b50505050601f198482030160051c8452602001604052505092915050565b60008151835114611a1c575060006103cd565b60005b8351811015611a8757828181518110611a3a57611a3a612853565b602001015160f81c60f81b6001600160f81b031916848281518110611a6157611a61612853565b01602001516001600160f81b03191614611a7f5760009150506103cd565b600101611a1f565b5060019392505050565b8251606090611aa08385612b2a565b1115611aab57600080fd5b60008267ffffffffffffffff811115611ac657611ac66127ad565b6040519080825280601f01601f191660200182016040528015611af0576020820181803683370190505b50905060208082019086860101611b0882828761232a565b509095945050505050565b600080808085611b24866001612b2a565b81518110611b3457611b34612853565b0160200151600160ff1b16600003611b9f5785611b52866001612b2a565b81518110611b6257611b62612853565b016020015160f81c9250611b77856002612b2a565b91506001611b8e846001600160501b038516612b2a565b611b989190612b3d565b9050611c93565b600086611bad876001612b2a565b81518110611bbd57611bbd612853565b60209101015160f81c607f1690506001819003611bf357611be9611be2876002612b2a565b88906123ae565b60ff169350611c55565b8060ff16600203611c1e57611c13611c0c876002612b2a565b88906123d2565b61ffff169350611c55565b611c29816020612b8b565b611c34906008612ba4565b60ff16611c50611c45886002612b2a565b899060ff85166123fa565b901c93505b60ff8116611c64876002612b2a565b611c6e9190612b2a565b92506001611c85856001600160501b038616612b2a565b611c8f9190612b3d565b9150505b69ffffffffffffffffffff60a01b60a082901b1669ffffffffffffffffffff60501b605084901b168617179695505050505050565b600081518351148015610a775750610a77836000846000875161243b565b6000806000806000806000808851600d03611d4c57600560308a600081518110611d1257611d12612853565b0160200151611d24919060f81c612b8b565b60ff161015611d4057611d396107d088612bc0565b9650611dd2565b611d3961076c88612bc0565b603089600181518110611d6157611d61612853565b0160200151611d73919060f81c612b8b565b611d7e906064612ba4565b60ff1660308a600081518110611d9657611d96612853565b0160200151611da8919060f81c612b8b565b611db79060ff166103e8612bda565b611dc19190612bc0565b611dcb9088612bc0565b9650600290505b603089611de0836001612bf7565b60ff1681518110611df357611df3612853565b016020015160f81c60308b611e09856000612bf7565b60ff1681518110611e1c57611e1c612853565b0160200151611e2e919060f81c612b8b565b611e3990600a612ba4565b611e439190612bf7565b611e4d9190612b8b565b611e5a9060ff1688612bc0565b9650603089611e6a836003612bf7565b60ff1681518110611e7d57611e7d612853565b016020015160f81c60308b611e93856002612bf7565b60ff1681518110611ea657611ea6612853565b0160200151611eb8919060f81c612b8b565b611ec390600a612ba4565b611ecd9190612bf7565b611ed79190612b8b565b9550603089611ee7836005612bf7565b60ff1681518110611efa57611efa612853565b016020015160f81c60308b611f10856004612bf7565b60ff1681518110611f2357611f23612853565b0160200151611f35919060f81c612b8b565b611f4090600a612ba4565b611f4a9190612bf7565b611f549190612b8b565b611f5e9086612bf7565b9450603089611f6e836007612bf7565b60ff1681518110611f8157611f81612853565b016020015160f81c60308b611f97856006612bf7565b60ff1681518110611faa57611faa612853565b0160200151611fbc919060f81c612b8b565b611fc790600a612ba4565b611fd19190612bf7565b611fdb9190612b8b565b611fe59085612bf7565b9350603089611ff5836009612bf7565b60ff168151811061200857612008612853565b016020015160f81c60308b61201e856008612bf7565b60ff168151811061203157612031612853565b0160200151612043919060f81c612b8b565b61204e90600a612ba4565b6120589190612bf7565b6120629190612b8b565b61206c9084612bf7565b925060308961207c83600b612bf7565b60ff168151811061208f5761208f612853565b016020015160f81c60308b6120a585600a612bf7565b60ff16815181106120b8576120b8612853565b01602001516120ca919060f81c612b8b565b6120d590600a612ba4565b6120df9190612bf7565b6120e99190612b8b565b6120f39083612bf7565b91506121798761ffff168760ff168760ff168760ff168760ff168760ff16600081603c8402610e108602620afa6c1961019060038b108c0381810462023ab10260649290910691820461016d830260029390931c9290920161f4ff600c60098f01060261030101600b1c8c01019190910301016201518002010101979650505050505050565b9998505050505050505050565b6060826001600160501b038316815181106121a3576121a3612853565b6020910101516001600160f81b031916600360f81b146121fb5760405162461bcd60e51b81526020600482015260136024820152724e6f7420747970652042495420535452494e4760681b60448201526064016105b2565b82605083901c6001600160501b03168151811061221a5761221a612853565b01602001516001600160f81b0319161561223357600080fd5b6000605083901c6001600160501b031660a084901c6001600160501b031661225c906001612b2a565b6122669190612b3d565b90506122966122836001600160501b03605086901c166001612b2a565b61228e600184612b3d565b869190611a91565b949350505050565b6000826001600160501b038316815181106122bb576122bb612853565b6020910101516001600160f81b031916600360f81b146123135760405162461bcd60e51b81526020600482015260136024820152724e6f7420747970652042495420535452494e4760681b60448201526064016105b2565b610a7783605084901c6001600160501b03166114b5565b602081106123625781518352612341602084612b2a565b925061234e602083612b2a565b915061235b602082612b3d565b905061232a565b600081600003612375575060001961239b565b6001612382836020612b3d565b61238e90610100612cf7565b6123989190612b3d565b90505b9151835183169219169190911790915250565b60008282815181106123c2576123c2612853565b016020015160f81c905092915050565b81516000906123e2836002612b2a565b11156123ed57600080fd5b50016002015161ffff1690565b6000602082111561240a57600080fd5b83516124168385612b2a565b111561242157600080fd5b506020919092018101519190036101000a60001901191690565b600061244884848461245e565b61245387878561245e565b149695505050505050565b825160009061246d8385612b2a565b111561247857600080fd5b5091016020012090565b604051806101600160405280600081526020016060815260200160008152602001600081526020016060815260200160608152602001600060038111156124cb576124cb6128b0565b8152602001600081526020016060815260200160608152602001600081525090565b600481106124fa57600080fd5b50565b6000806040838503121561251057600080fd5b823561251b816124ed565b9150602083013561252b816124ed565b809150509250929050565b60005b83811015612551578181015183820152602001612539565b50506000910152565b60008151808452612572816020860160208601612536565b601f01601f19169290920160200192915050565b604081526000612599604083018561255a565b828103602084015261126f818561255a565b600080600083850360c08112156125c157600080fd5b84356125cc816124ed565b935060208501356125dc816124ed565b92506080603f19820112156125f057600080fd5b506040840190509250925092565b602081526000610a77602083018461255a565b60006020828403121561262357600080fd5b8135610a77816124ed565b60008083601f84011261264057600080fd5b50813567ffffffffffffffff81111561265857600080fd5b60208301915083602082850101111561267057600080fd5b9250929050565b6000806000806040858703121561268d57600080fd5b843567ffffffffffffffff8111156126a457600080fd5b6126b08782880161262e565b909550935050602085013567ffffffffffffffff8111156126d057600080fd5b6126dc8782880161262e565b95989497509550505050565b600080600080604085870312156126fe57600080fd5b843567ffffffffffffffff81111561271557600080fd5b8501601f8101871361272657600080fd5b803567ffffffffffffffff81111561273d57600080fd5b8760208260051b840101111561275257600080fd5b60209182019550935085013567ffffffffffffffff8111156126d057600080fd5b600181811c9082168061278757607f821691505b6020821081036127a757634e487b7160e01b600052602260045260246000fd5b50919050565b634e487b7160e01b600052604160045260246000fd5b803560ff811681146113c757600080fd5b600060808284031280156127e757600080fd5b506040516080810167ffffffffffffffff8111828210171561280b5761280b6127ad565b604052612817836127c3565b8152612825602084016127c3565b6020820152612836604084016127c3565b6040820152612847606084016127c3565b60608201529392505050565b634e487b7160e01b600052603260045260246000fd5b6000808335601e1984360301811261288057600080fd5b83018035915067ffffffffffffffff82111561289b57600080fd5b60200191503681900382131561267057600080fd5b634e487b7160e01b600052602160045260246000fd5b600481106124fa57634e487b7160e01b600052602160045260246000fd5b6128ed836128c6565b8260f81b81526128fc826128c6565b60f89190911b6001820152600201919050565b612918826128c6565b60f89190911b815260010190565b61292f876128c6565b8660f81b815261293e866128c6565b60f895861b60018201526001600160f81b031994861b8516600282015292851b8416600384015290841b8316600483015290921b166005820152600601919050565b634e487b7160e01b600052600160045260246000fd5b601f8211156129dd57806000526020600020601f840160051c810160208510156129bd5750805b601f840160051c820191505b8181101561053957600081556001016129c9565b505050565b815167ffffffffffffffff8111156129fc576129fc6127ad565b612a1081612a0a8454612773565b84612996565b6020601f821160018114612a445760008315612a2c5750848201515b600019600385901b1c1916600184901b178455610539565b600084815260208120601f198516915b82811015612a745787850151825560209485019460019092019101612a54565b5084821015612a925786840151600019600387901b60f8161c191681555b50505050600190811b01905550565b60008251612ab3818460208701612536565b9190910192915050565b600060208284031215612acf57600080fd5b5051919050565b805160208201516001600160f81b0319811691906001821015612b0d576001600160f81b0319600183900360031b81901b82161692505b5050919050565b634e487b7160e01b600052601160045260246000fd5b808201808211156103cd576103cd612b14565b818103818111156103cd576103cd612b14565b80820281158282048414176103cd576103cd612b14565b805160208083015191908110156127a75760001960209190910360031b1b16919050565b60ff82811682821603908111156103cd576103cd612b14565b60ff8181168382160290811690818114610e6757610e67612b14565b61ffff81811683821601908111156103cd576103cd612b14565b61ffff8181168382160290811690818114610e6757610e67612b14565b60ff81811683821601908111156103cd576103cd612b14565b6001815b6001841115612c4b57808504811115612c2f57612c2f612b14565b6001841615612c3d57908102905b60019390931c928002612c14565b935093915050565b600082612c62575060016103cd565b81612c6f575060006103cd565b8160018114612c855760028114612c8f57612cab565b60019150506103cd565b60ff841115612ca057612ca0612b14565b50506001821b6103cd565b5060208310610133831016604e8410600b8410161715612cce575081810a6103cd565b612cdb6000198484612c10565b8060001904821115612cef57612cef612b14565b029392505050565b6000610a778383612c5356fea264697066735822122042357a924fbd306fec0d9ebde6c4c748d8fd40b75d430fd0e187c7ddc46c8e2964736f6c634300081b0033","linkReferences":{}},"methodIdentifiers":{"fetchCa(uint8,uint8)":"74aacb55","fetchVek(uint8,uint8,(uint8,uint8,uint8,uint8))":"9c965815","getARKHash(uint8)":"c3f8eaca","getASKHash(uint8,uint8)":"d28eb99c","getVEKHash(uint8,uint8,(uint8,uint8,uint8,uint8))":"adb3f1c3","upsertVekCaChain(bytes[],bytes)":"fcc554ed","upsertVekCert(bytes,bytes)":"dbf7e8ad"},"id":39}