{"abi":[{"type":"constructor","inputs":[{"name":"kdsAddr","type":"address","internalType":"address"}],"stateMutability":"nonpayable"},{"type":"function","name":"cancelOwnershipHandover","inputs":[],"outputs":[],"stateMutability":"payable"},{"type":"function","name":"completeOwnershipHandover","inputs":[{"name":"pendingOwner","type":"address","internalType":"address"}],"outputs":[],"stateMutability":"payable"},{"type":"function","name":"kds","inputs":[],"outputs":[{"name":"","type":"address","internalType":"contract KDSBase"}],"stateMutability":"view"},{"type":"function","name":"owner","inputs":[],"outputs":[{"name":"result","type":"address","internalType":"address"}],"stateMutability":"view"},{"type":"function","name":"ownershipHandoverExpiresAt","inputs":[{"name":"pendingOwner","type":"address","internalType":"address"}],"outputs":[{"name":"result","type":"uint256","internalType":"uint256"}],"stateMutability":"view"},{"type":"function","name":"programIdentifier","inputs":[{"name":"zkCoProcessorType","type":"uint8","internalType":"uint8"}],"outputs":[{"name":"","type":"bytes32","internalType":"bytes32"}],"stateMutability":"view"},{"type":"function","name":"renounceOwnership","inputs":[],"outputs":[],"stateMutability":"payable"},{"type":"function","name":"requestOwnershipHandover","inputs":[],"outputs":[],"stateMutability":"payable"},{"type":"function","name":"setZkConfiguration","inputs":[{"name":"zkCoProcessor","type":"uint8","internalType":"enum ZkCoProcessorType"},{"name":"config","type":"tuple","internalType":"struct ZkCoProcessorConfig","components":[{"name":"programIdentifier","type":"bytes32","internalType":"bytes32"},{"name":"zkVerifier","type":"address","internalType":"address"}]}],"outputs":[],"stateMutability":"nonpayable"},{"type":"function","name":"transferOwnership","inputs":[{"name":"newOwner","type":"address","internalType":"address"}],"outputs":[],"stateMutability":"payable"},{"type":"function","name":"updateKds","inputs":[{"name":"kdsAddr","type":"address","internalType":"address"}],"outputs":[],"stateMutability":"nonpayable"},{"type":"function","name":"verifyAndAttestWithZKProof","inputs":[{"name":"output","type":"bytes","internalType":"bytes"},{"name":"zkCoprocessor","type":"uint8","internalType":"enum ZkCoProcessorType"},{"name":"proofBytes","type":"bytes","internalType":"bytes"}],"outputs":[{"name":"parsed","type":"tuple","internalType":"struct ZkOutput","components":[{"name":"apiOpt","type":"uint8","internalType":"enum ApiOpt"},{"name":"processorModel","type":"uint8","internalType":"enum ProcessorType"},{"name":"rawSevAttestationReport","type":"bytes","internalType":"bytes"},{"name":"vekRootHash","type":"bytes32","internalType":"bytes32"},{"name":"rawTpmQuote","type":"bytes","internalType":"bytes"},{"name":"pcr10HashAlgo","type":"uint16","internalType":"uint16"},{"name":"pcr10Value","type":"bytes","internalType":"bytes"},{"name":"tpmAikRootHash","type":"bytes32","internalType":"bytes32"},{"name":"tpmEkRootHash","type":"bytes32","internalType":"bytes32"}]}],"stateMutability":"view"},{"type":"function","name":"zkVerifier","inputs":[{"name":"zkCoProcessorType","type":"uint8","internalType":"uint8"}],"outputs":[{"name":"","type":"address","internalType":"address"}],"stateMutability":"view"},{"type":"event","name":"OwnershipHandoverCanceled","inputs":[{"name":"pendingOwner","type":"address","indexed":true,"internalType":"address"}],"anonymous":false},{"type":"event","name":"OwnershipHandoverRequested","inputs":[{"name":"pendingOwner","type":"address","indexed":true,"internalType":"address"}],"anonymous":false},{"type":"event","name":"OwnershipTransferred","inputs":[{"name":"oldOwner","type":"address","indexed":true,"internalType":"address"},{"name":"newOwner","type":"address","indexed":true,"internalType":"address"}],"anonymous":false},{"type":"error","name":"AlreadyInitialized","inputs":[]},{"type":"error","name":"Invalid_Certchain_Length","inputs":[]},{"type":"error","name":"NewOwnerIsZeroAddress","inputs":[]},{"type":"error","name":"NoHandoverRequest","inputs":[]},{"type":"error","name":"Root_Of_Trust_Mismatch","inputs":[]},{"type":"error","name":"Unauthorized","inputs":[]},{"type":"error","name":"Unknown_Pcr10_Hash_Algo","inputs":[{"name":"hashAlgo","type":"uint16","internalType":"uint16"}]},{"type":"error","name":"Unknown_Zk_Coprocessor","inputs":[]}],"bytecode":{"object":"0x6080604052348015600f57600080fd5b5060405161115b38038061115b833981016040819052602c916093565b6033336057565b600080546001600160a01b0319166001600160a01b039290921691909117905560c1565b6001600160a01b0316638b78c6d8198190558060007f8be0079c531659141344cd1fd0a4f28419497f9722a3daafe3b4186f6b6457e08180a350565b60006020828403121560a457600080fd5b81516001600160a01b038116811460ba57600080fd5b9392505050565b61108b806100d06000396000f3fe6080604052600436106100c25760003560e01c80638355ec6c1161007f578063e819804311610059578063e8198043146101d2578063f04e283e146101f2578063f2fde38b14610205578063fee81cf41461021857600080fd5b80638355ec6c146101615780638da5cb5b14610199578063ad088d18146101b257600080fd5b806325692962146100c757806325e11c75146100d15780633043d2b1146100f157806354d1f13d1461012457806357859ce01461012c578063715018a614610159575b600080fd5b6100cf61024b565b005b3480156100dd57600080fd5b506100cf6100ec366004610b8b565b61029b565b3480156100fd57600080fd5b5061011161010c366004610c16565b610309565b6040519081526020015b60405180910390f35b6100cf61035d565b34801561013857600080fd5b5061014c610147366004610c89565b610399565b60405161011b9190610d90565b6100cf6105fd565b34801561016d57600080fd5b5061018161017c366004610c16565b610611565b6040516001600160a01b03909116815260200161011b565b3480156101a557600080fd5b50638b78c6d81954610181565b3480156101be57600080fd5b506100cf6101cd366004610e51565b610671565b3480156101de57600080fd5b50600054610181906001600160a01b031681565b6100cf610200366004610e51565b61069b565b6100cf610213366004610e51565b6106db565b34801561022457600080fd5b50610111610233366004610e51565b63389a75e1600c908152600091909152602090205490565b60006202a30067ffffffffffffffff164201905063389a75e1600c5233600052806020600c2055337fdbf36a107da19e49527a7176a1babf963b4b0ff8cde35ee35d6cd8f1f9ac7e1d600080a250565b6102a3610702565b80600160008460028111156102ba576102ba610d10565b60028111156102cb576102cb610d10565b815260208082019290925260400160002082518155910151600190910180546001600160a01b0319166001600160a01b039092169190911790555050565b6000600160008360ff16600281111561032457610324610d10565b600281111561033557610335610d10565b600281111561034657610346610d10565b815260208101919091526040016000205492915050565b63389a75e1600c523360005260006020600c2055337ffa7b8eab7da67f412cc9575ed43464468f9bfbae89d1675917346ca6d8fe3c92600080a2565b6103a1610b11565b6000600160008660028111156103b9576103b9610d10565b60028111156103ca576103ca610d10565b815260208082019290925260409081016000208151808301909252805482526001908101546001600160a01b031692820192909252915085600281111561041357610413610d10565b036104d85780602001516001600160a01b031663ab750e758585846000015160028c8c604051610444929190610e6c565b602060405180830381855afa158015610461573d6000803e3d6000fd5b5050506040513d601f19601f820116820180604052508101906104849190610e7c565b6040518563ffffffff1660e01b81526004016104a39493929190610ebe565b60006040518083038186803b1580156104bb57600080fd5b505afa1580156104cf573d6000803e3d6000fd5b50505050610544565b60028560028111156104ec576104ec610d10565b0361052b576020810151815160405163020a49e360e51b81526001600160a01b03909216916341493c60916104a3918b908b908a908a90600401610ee5565b60405163146af65760e21b815260040160405180910390fd5b61054e878761071d565b60608101516000805460208401516040516361fc756560e11b8152949650929391926001600160a01b039091169163c3f8eaca9161058e91600401610f1e565b602060405180830381865afa1580156105ab573d6000803e3d6000fd5b505050506040513d601f19601f820116820180604052508101906105cf9190610e7c565b90508181146105f15760405163ab20140d60e01b815260040160405180910390fd5b50505095945050505050565b610605610702565b61060f6000610ad3565b565b6000600160008360ff16600281111561062c5761062c610d10565b600281111561063d5761063d610d10565b600281111561064e5761064e610d10565b81526020810191909152604001600020600101546001600160a01b031692915050565b610679610702565b600080546001600160a01b0319166001600160a01b0392909216919091179055565b6106a3610702565b63389a75e1600c52806000526020600c2080544211156106cb57636f5e88186000526004601cfd5b600090556106d881610ad3565b50565b6106e3610702565b8060601b6106f957637448fbae6000526004601cfd5b6106d881610ad3565b638b78c6d81954331461060f576382b429006000526004601cfd5b610725610b11565b610733600160008486610f32565b61073c91610f5c565b60f81c600281111561075057610750610d10565b8190600281111561076357610763610d10565b9081600281111561077657610776610d10565b905250610787600260018486610f32565b61079091610f5c565b60f81c60038111156107a4576107a4610d10565b816020019060038111156107ba576107ba610d10565b908160038111156107cd576107cd610d10565b90525060006107e0600660028587610f32565b6107e991610f94565b60e01c905060068481856107fd8583610fca565b9261080a93929190610f32565b8080601f016020809104026020016040519081016040528093929190818152602001838380828437600092019190915250505050604084015261085363ffffffff831682610fca565b9050848185610863826020610fca565b9261087093929190610f32565b61087991610feb565b6060840152610889602082610fca565b90506002835160028111156108a0576108a0610d10565b03610abc5760008582866108b5826004610fca565b926108c293929190610f32565b6108cb91610f94565b60e01c90506108db600483610fca565b91508582866108f063ffffffff851683610fca565b926108fd93929190610f32565b8080601f016020809104026020016040519081016040528093929190818152602001838380828437600092019190915250505050608085015261094663ffffffff821683610fca565b9150858286610956826002610fca565b9261096393929190610f32565b61096c91611009565b60f01c60a085015261097f600283610fca565b91506000600461ffff168560a0015161ffff160361099f575060146109e4565b600b61ffff168560a0015161ffff16036109bb575060206109e4565b60a0850151604051635f8daf9560e01b815261ffff909116600482015260240160405180910390fd5b8683876109f18483610fca565b926109fe93929190610f32565b8080601f01602080910402602001604051908101604052809392919081815260200183838082843760009201919091525050505060c0860152610a418184610fca565b9250868387610a51826020610fca565b92610a5e93929190610f32565b610a6791610feb565b60e0860152610a77602084610fca565b925085831015610ab957868387610a8f826020610fca565b92610a9c93929190610f32565b610aa591610feb565b610100860152610ab6602084610fca565b92505b50505b838114610acb57610acb61103f565b505092915050565b638b78c6d81980546001600160a01b039092169182907f8be0079c531659141344cd1fd0a4f28419497f9722a3daafe3b4186f6b6457e0600080a355565b6040805161012081019091528060008152602001600081526060602082018190526000604083018190528183018290526080830181905260a083019190915260c0820181905260e09091015290565b803560038110610b6f57600080fd5b919050565b80356001600160a01b0381168114610b6f57600080fd5b6000808284036060811215610b9f57600080fd5b610ba884610b60565b92506040601f1982011215610bbc57600080fd5b506040516040810181811067ffffffffffffffff82111715610bee57634e487b7160e01b600052604160045260246000fd5b806040525060208401358152610c0660408501610b74565b6020820152809150509250929050565b600060208284031215610c2857600080fd5b813560ff81168114610c3957600080fd5b9392505050565b60008083601f840112610c5257600080fd5b50813567ffffffffffffffff811115610c6a57600080fd5b602083019150836020828501011115610c8257600080fd5b9250929050565b600080600080600060608688031215610ca157600080fd5b853567ffffffffffffffff811115610cb857600080fd5b610cc488828901610c40565b9096509450610cd7905060208701610b60565b9250604086013567ffffffffffffffff811115610cf357600080fd5b610cff88828901610c40565b969995985093965092949392505050565b634e487b7160e01b600052602160045260246000fd5b60038110610d3657610d36610d10565b9052565b60048110610d3657610d36610d10565b6000815180845260005b81811015610d7057602081850181015186830182015201610d54565b506000602082860101526020601f19601f83011685010191505092915050565b60208152610da2602082018351610d26565b60006020830151610db66040840182610d3a565b5060408301516101206060840152610dd2610140840182610d4a565b9050606084015160808401526080840151601f198483030160a0850152610df98282610d4a565b91505060a0840151610e1160c085018261ffff169052565b5060c0840151838203601f190160e0850152610e2d8282610d4a565b91505060e08401516101008401526101008401516101208401528091505092915050565b600060208284031215610e6357600080fd5b610c3982610b74565b8183823760009101908152919050565b600060208284031215610e8e57600080fd5b5051919050565b81835281816020850137506000828201602090810191909152601f909101601f19169091010190565b606081526000610ed2606083018688610e95565b6020830194909452506040015292915050565b858152606060208201526000610eff606083018688610e95565b8281036040840152610f12818587610e95565b98975050505050505050565b60208101610f2c8284610d3a565b92915050565b60008085851115610f4257600080fd5b83861115610f4f57600080fd5b5050820193919092039150565b80356001600160f81b03198116906001841015610f8d576001600160f81b0319600185900360031b81901b82161691505b5092915050565b80356001600160e01b03198116906004841015610f8d576001600160e01b031960049490940360031b84901b1690921692915050565b80820180821115610f2c57634e487b7160e01b600052601160045260246000fd5b80356020831015610f2c57600019602084900360031b1b1692915050565b80356001600160f01b03198116906002841015610f8d576001600160f01b031960029490940360031b84901b1690921692915050565b634e487b7160e01b600052600160045260246000fdfea2646970667358221220ae23f002ac6b59152e6a1420806918a58d6dfea9d1973ffcb8650a074d4de23364736f6c634300081b0033","linkReferences":{}},"methodIdentifiers":{"cancelOwnershipHandover()":"54d1f13d","completeOwnershipHandover(address)":"f04e283e","kds()":"e8198043","owner()":"8da5cb5b","ownershipHandoverExpiresAt(address)":"fee81cf4","programIdentifier(uint8)":"3043d2b1","renounceOwnership()":"715018a6","requestOwnershipHandover()":"25692962","setZkConfiguration(uint8,(bytes32,address))":"25e11c75","transferOwnership(address)":"f2fde38b","updateKds(address)":"ad088d18","verifyAndAttestWithZKProof(bytes,uint8,bytes)":"57859ce0","zkVerifier(uint8)":"8355ec6c"},"id":41}