{"abi":[{"type":"constructor","inputs":[{"name":"risc0Verifier","type":"address","internalType":"address"},{"name":"imageId","type":"bytes32","internalType":"bytes32"},{"name":"kdsAddr","type":"address","internalType":"address"}],"stateMutability":"nonpayable"},{"type":"function","name":"SEV_RISC0_IMAGE_ID","inputs":[],"outputs":[{"name":"","type":"bytes32","internalType":"bytes32"}],"stateMutability":"view"},{"type":"function","name":"cancelOwnershipHandover","inputs":[],"outputs":[],"stateMutability":"payable"},{"type":"function","name":"completeOwnershipHandover","inputs":[{"name":"pendingOwner","type":"address","internalType":"address"}],"outputs":[],"stateMutability":"payable"},{"type":"function","name":"kds","inputs":[],"outputs":[{"name":"","type":"address","internalType":"contract KDSBase"}],"stateMutability":"view"},{"type":"function","name":"owner","inputs":[],"outputs":[{"name":"result","type":"address","internalType":"address"}],"stateMutability":"view"},{"type":"function","name":"ownershipHandoverExpiresAt","inputs":[{"name":"pendingOwner","type":"address","internalType":"address"}],"outputs":[{"name":"result","type":"uint256","internalType":"uint256"}],"stateMutability":"view"},{"type":"function","name":"renounceOwnership","inputs":[],"outputs":[],"stateMutability":"payable"},{"type":"function","name":"requestOwnershipHandover","inputs":[],"outputs":[],"stateMutability":"payable"},{"type":"function","name":"riscZeroVerifier","inputs":[],"outputs":[{"name":"","type":"address","internalType":"contract IRiscZeroVerifier"}],"stateMutability":"view"},{"type":"function","name":"transferOwnership","inputs":[{"name":"newOwner","type":"address","internalType":"address"}],"outputs":[],"stateMutability":"payable"},{"type":"function","name":"updateKds","inputs":[{"name":"kdsAddr","type":"address","internalType":"address"}],"outputs":[],"stateMutability":"nonpayable"},{"type":"function","name":"updateRisc0Config","inputs":[{"name":"risc0Verifier","type":"address","internalType":"address"},{"name":"imageId","type":"bytes32","internalType":"bytes32"}],"outputs":[],"stateMutability":"nonpayable"},{"type":"function","name":"verifyAndAttestWithZKProof","inputs":[{"name":"journal","type":"bytes","internalType":"bytes"},{"name":"seal","type":"bytes","internalType":"bytes"}],"outputs":[{"name":"parsed","type":"tuple","internalType":"struct Journal","components":[{"name":"apiOpt","type":"uint8","internalType":"enum ApiOpt"},{"name":"processorModel","type":"uint8","internalType":"enum ProcessorType"},{"name":"rawSevAttestationReport","type":"bytes","internalType":"bytes"},{"name":"vekRootHash","type":"bytes32","internalType":"bytes32"},{"name":"rawTpmQuote","type":"bytes","internalType":"bytes"},{"name":"pcr10HashAlgo","type":"uint16","internalType":"uint16"},{"name":"pcr10Value","type":"bytes","internalType":"bytes"},{"name":"tpmAikRootHash","type":"bytes32","internalType":"bytes32"},{"name":"tpmEkRootHash","type":"bytes32","internalType":"bytes32"}]}],"stateMutability":"view"},{"type":"event","name":"OwnershipHandoverCanceled","inputs":[{"name":"pendingOwner","type":"address","indexed":true,"internalType":"address"}],"anonymous":false},{"type":"event","name":"OwnershipHandoverRequested","inputs":[{"name":"pendingOwner","type":"address","indexed":true,"internalType":"address"}],"anonymous":false},{"type":"event","name":"OwnershipTransferred","inputs":[{"name":"oldOwner","type":"address","indexed":true,"internalType":"address"},{"name":"newOwner","type":"address","indexed":true,"internalType":"address"}],"anonymous":false},{"type":"error","name":"AlreadyInitialized","inputs":[]},{"type":"error","name":"Invalid_Certchain_Length","inputs":[]},{"type":"error","name":"NewOwnerIsZeroAddress","inputs":[]},{"type":"error","name":"NoHandoverRequest","inputs":[]},{"type":"error","name":"Root_Of_Trust_Mismatch","inputs":[]},{"type":"error","name":"Unauthorized","inputs":[]},{"type":"error","name":"Unknown_Pcr10_Hash_Algo","inputs":[{"name":"hashAlgo","type":"uint16","internalType":"uint16"}]}],"bytecode":{"object":"0x608060405234801561001057600080fd5b50604051610ed1380380610ed183398101604081905261002f916100c7565b6100383361006f565b600080546001600160a01b039485166001600160a01b03199182161790915560029290925560018054919093169116179055610103565b6001600160a01b0316638b78c6d8198190558060007f8be0079c531659141344cd1fd0a4f28419497f9722a3daafe3b4186f6b6457e08180a350565b80516001600160a01b03811681146100c257600080fd5b919050565b6000806000606084860312156100dc57600080fd5b6100e5846100ab565b9250602084015191506100fa604085016100ab565b90509250925092565b610dbf806101126000396000f3fe6080604052600436106100c25760003560e01c8063ad088d181161007f578063f04e283e11610059578063f04e283e146101c4578063f2fde38b146101d7578063f6ac35a6146101ea578063fee81cf41461020e57600080fd5b8063ad088d1814610164578063cb7f894414610184578063e8198043146101a457600080fd5b806304daae79146100c757806313f19c8014610104578063256929621461013157806354d1f13d1461013b578063715018a6146101435780638da5cb5b1461014b575b600080fd5b3480156100d357600080fd5b506000546100e7906001600160a01b031681565b6040516001600160a01b0390911681526020015b60405180910390f35b34801561011057600080fd5b5061012461011f3660046109cf565b610241565b6040516100fb9190610ac0565b6101396103c9565b005b610139610419565b610139610455565b34801561015757600080fd5b50638b78c6d819546100e7565b34801561017057600080fd5b5061013961017f366004610b9d565b610469565b34801561019057600080fd5b5061013961019f366004610bbf565b610493565b3480156101b057600080fd5b506001546100e7906001600160a01b031681565b6101396101d2366004610b9d565b6104c1565b6101396101e5366004610b9d565b610501565b3480156101f657600080fd5b5061020060025481565b6040519081526020016100fb565b34801561021a57600080fd5b50610200610229366004610b9d565b63389a75e1600c908152600091909152602090205490565b610249610937565b60008054906101000a90046001600160a01b03166001600160a01b031663ab750e75848460025460028a8a604051610282929190610be9565b602060405180830381855afa15801561029f573d6000803e3d6000fd5b5050506040513d601f19601f820116820180604052508101906102c29190610bf9565b6040518563ffffffff1660e01b81526004016102e19493929190610c12565b60006040518083038186803b1580156102f957600080fd5b505afa15801561030d573d6000803e3d6000fd5b5050505061031b8585610528565b606081015160015460208301516040516361fc756560e11b815293945091926000926001600160a01b039092169163c3f8eaca9161035c9190600401610c52565b602060405180830381865afa158015610379573d6000803e3d6000fd5b505050506040513d601f19601f8201168201806040525081019061039d9190610bf9565b90508181146103bf5760405163ab20140d60e01b815260040160405180910390fd5b5050949350505050565b60006202a30067ffffffffffffffff164201905063389a75e1600c5233600052806020600c2055337fdbf36a107da19e49527a7176a1babf963b4b0ff8cde35ee35d6cd8f1f9ac7e1d600080a250565b63389a75e1600c523360005260006020600c2055337ffa7b8eab7da67f412cc9575ed43464468f9bfbae89d1675917346ca6d8fe3c92600080a2565b61045d6108de565b61046760006108f9565b565b6104716108de565b600180546001600160a01b0319166001600160a01b0392909216919091179055565b61049b6108de565b600080546001600160a01b0319166001600160a01b039390931692909217909155600255565b6104c96108de565b63389a75e1600c52806000526020600c2080544211156104f157636f5e88186000526004601cfd5b600090556104fe816108f9565b50565b6105096108de565b8060601b61051f57637448fbae6000526004601cfd5b6104fe816108f9565b610530610937565b61053e600160008486610c66565b61054791610c90565b60f81c600281111561055b5761055b610a40565b8190600281111561056e5761056e610a40565b9081600281111561058157610581610a40565b905250610592600260018486610c66565b61059b91610c90565b60f81c60038111156105af576105af610a40565b816020019060038111156105c5576105c5610a40565b908160038111156105d8576105d8610a40565b90525060006105eb600660028587610c66565b6105f491610cc8565b60e01c905060068481856106088583610cfe565b9261061593929190610c66565b8080601f016020809104026020016040519081016040528093929190818152602001838380828437600092019190915250505050604084015261065e63ffffffff831682610cfe565b905084818561066e826020610cfe565b9261067b93929190610c66565b61068491610d1f565b6060840152610694602082610cfe565b90506002835160028111156106ab576106ab610a40565b036108c75760008582866106c0826004610cfe565b926106cd93929190610c66565b6106d691610cc8565b60e01c90506106e6600483610cfe565b91508582866106fb63ffffffff851683610cfe565b9261070893929190610c66565b8080601f016020809104026020016040519081016040528093929190818152602001838380828437600092019190915250505050608085015261075163ffffffff821683610cfe565b9150858286610761826002610cfe565b9261076e93929190610c66565b61077791610d3d565b60f01c60a085015261078a600283610cfe565b91506000600461ffff168560a0015161ffff16036107aa575060146107ef565b600b61ffff168560a0015161ffff16036107c6575060206107ef565b60a0850151604051635f8daf9560e01b815261ffff909116600482015260240160405180910390fd5b8683876107fc8483610cfe565b9261080993929190610c66565b8080601f01602080910402602001604051908101604052809392919081815260200183838082843760009201919091525050505060c086015261084c8184610cfe565b925086838761085c826020610cfe565b9261086993929190610c66565b61087291610d1f565b60e0860152610882602084610cfe565b9250858310156108c45786838761089a826020610cfe565b926108a793929190610c66565b6108b091610d1f565b6101008601526108c1602084610cfe565b92505b50505b8381146108d6576108d6610d73565b505092915050565b638b78c6d819543314610467576382b429006000526004601cfd5b638b78c6d81980546001600160a01b039092169182907f8be0079c531659141344cd1fd0a4f28419497f9722a3daafe3b4186f6b6457e0600080a355565b6040805161012081019091528060008152602001600081526060602082018190526000604083018190528183018290526080830181905260a083019190915260c0820181905260e09091015290565b60008083601f84011261099857600080fd5b50813567ffffffffffffffff8111156109b057600080fd5b6020830191508360208285010111156109c857600080fd5b9250929050565b600080600080604085870312156109e557600080fd5b843567ffffffffffffffff8111156109fc57600080fd5b610a0887828801610986565b909550935050602085013567ffffffffffffffff811115610a2857600080fd5b610a3487828801610986565b95989497509550505050565b634e487b7160e01b600052602160045260246000fd5b60038110610a6657610a66610a40565b9052565b60048110610a6657610a66610a40565b6000815180845260005b81811015610aa057602081850181015186830182015201610a84565b506000602082860101526020601f19601f83011685010191505092915050565b60208152610ad2602082018351610a56565b60006020830151610ae66040840182610a6a565b5060408301516101206060840152610b02610140840182610a7a565b9050606084015160808401526080840151601f198483030160a0850152610b298282610a7a565b91505060a0840151610b4160c085018261ffff169052565b5060c0840151838203601f190160e0850152610b5d8282610a7a565b91505060e08401516101008401526101008401516101208401528091505092915050565b80356001600160a01b0381168114610b9857600080fd5b919050565b600060208284031215610baf57600080fd5b610bb882610b81565b9392505050565b60008060408385031215610bd257600080fd5b610bdb83610b81565b946020939093013593505050565b8183823760009101908152919050565b600060208284031215610c0b57600080fd5b5051919050565b606081528360608201528385608083013760006080858301015260006080601f19601f870116830101905083602083015282604083015295945050505050565b60208101610c608284610a6a565b92915050565b60008085851115610c7657600080fd5b83861115610c8357600080fd5b5050820193919092039150565b80356001600160f81b03198116906001841015610cc1576001600160f81b0319600185900360031b81901b82161691505b5092915050565b80356001600160e01b03198116906004841015610cc1576001600160e01b031960049490940360031b84901b1690921692915050565b80820180821115610c6057634e487b7160e01b600052601160045260246000fd5b80356020831015610c6057600019602084900360031b1b1692915050565b80356001600160f01b03198116906002841015610cc1576001600160f01b031960029490940360031b84901b1690921692915050565b634e487b7160e01b600052600160045260246000fdfea26469706673582212208738dc95b1436ef98b42fba9678c892a5ab94bab15b3ea2890379b94426f245e64736f6c634300081b0033","linkReferences":{}},"methodIdentifiers":{"SEV_RISC0_IMAGE_ID()":"f6ac35a6","cancelOwnershipHandover()":"54d1f13d","completeOwnershipHandover(address)":"f04e283e","kds()":"e8198043","owner()":"8da5cb5b","ownershipHandoverExpiresAt(address)":"fee81cf4","renounceOwnership()":"715018a6","requestOwnershipHandover()":"25692962","riscZeroVerifier()":"04daae79","transferOwnership(address)":"f2fde38b","updateKds(address)":"ad088d18","updateRisc0Config(address,bytes32)":"cb7f8944","verifyAndAttestWithZKProof(bytes,bytes)":"13f19c80"},"id":37}